{
  "_format": "hh-sol-artifact-1",
  "contractName": "HealthItemPurchase",
  "sourceName": "contracts/HealthItemPurchase.sol",
  "abi": [
    {
      "inputs": [],
      "stateMutability": "nonpayable",
      "type": "constructor"
    },
    {
      "inputs": [
        {
          "internalType": "address",
          "name": "sender",
          "type": "address"
        },
        {
          "internalType": "uint256",
          "name": "tokenId",
          "type": "uint256"
        },
        {
          "internalType": "address",
          "name": "owner",
          "type": "address"
        }
      ],
      "name": "ERC721IncorrectOwner",
      "type": "error"
    },
    {
      "inputs": [
        {
          "internalType": "address",
          "name": "operator",
          "type": "address"
        },
        {
          "internalType": "uint256",
          "name": "tokenId",
          "type": "uint256"
        }
      ],
      "name": "ERC721InsufficientApproval",
      "type": "error"
    },
    {
      "inputs": [
        {
          "internalType": "address",
          "name": "approver",
          "type": "address"
        }
      ],
      "name": "ERC721InvalidApprover",
      "type": "error"
    },
    {
      "inputs": [
        {
          "internalType": "address",
          "name": "operator",
          "type": "address"
        }
      ],
      "name": "ERC721InvalidOperator",
      "type": "error"
    },
    {
      "inputs": [
        {
          "internalType": "address",
          "name": "owner",
          "type": "address"
        }
      ],
      "name": "ERC721InvalidOwner",
      "type": "error"
    },
    {
      "inputs": [
        {
          "internalType": "address",
          "name": "receiver",
          "type": "address"
        }
      ],
      "name": "ERC721InvalidReceiver",
      "type": "error"
    },
    {
      "inputs": [
        {
          "internalType": "address",
          "name": "sender",
          "type": "address"
        }
      ],
      "name": "ERC721InvalidSender",
      "type": "error"
    },
    {
      "inputs": [
        {
          "internalType": "uint256",
          "name": "tokenId",
          "type": "uint256"
        }
      ],
      "name": "ERC721NonexistentToken",
      "type": "error"
    },
    {
      "inputs": [
        {
          "internalType": "address",
          "name": "owner",
          "type": "address"
        }
      ],
      "name": "OwnableInvalidOwner",
      "type": "error"
    },
    {
      "inputs": [
        {
          "internalType": "address",
          "name": "account",
          "type": "address"
        }
      ],
      "name": "OwnableUnauthorizedAccount",
      "type": "error"
    },
    {
      "anonymous": false,
      "inputs": [
        {
          "indexed": true,
          "internalType": "address",
          "name": "owner",
          "type": "address"
        },
        {
          "indexed": true,
          "internalType": "address",
          "name": "approved",
          "type": "address"
        },
        {
          "indexed": true,
          "internalType": "uint256",
          "name": "tokenId",
          "type": "uint256"
        }
      ],
      "name": "Approval",
      "type": "event"
    },
    {
      "anonymous": false,
      "inputs": [
        {
          "indexed": true,
          "internalType": "address",
          "name": "owner",
          "type": "address"
        },
        {
          "indexed": true,
          "internalType": "address",
          "name": "operator",
          "type": "address"
        },
        {
          "indexed": false,
          "internalType": "bool",
          "name": "approved",
          "type": "bool"
        }
      ],
      "name": "ApprovalForAll",
      "type": "event"
    },
    {
      "anonymous": false,
      "inputs": [
        {
          "indexed": false,
          "internalType": "uint256",
          "name": "_fromTokenId",
          "type": "uint256"
        },
        {
          "indexed": false,
          "internalType": "uint256",
          "name": "_toTokenId",
          "type": "uint256"
        }
      ],
      "name": "BatchMetadataUpdate",
      "type": "event"
    },
    {
      "anonymous": false,
      "inputs": [
        {
          "indexed": false,
          "internalType": "uint256",
          "name": "_tokenId",
          "type": "uint256"
        }
      ],
      "name": "MetadataUpdate",
      "type": "event"
    },
    {
      "anonymous": false,
      "inputs": [
        {
          "indexed": true,
          "internalType": "address",
          "name": "previousOwner",
          "type": "address"
        },
        {
          "indexed": true,
          "internalType": "address",
          "name": "newOwner",
          "type": "address"
        }
      ],
      "name": "OwnershipTransferred",
      "type": "event"
    },
    {
      "anonymous": false,
      "inputs": [
        {
          "indexed": true,
          "internalType": "address",
          "name": "from",
          "type": "address"
        },
        {
          "indexed": true,
          "internalType": "address",
          "name": "to",
          "type": "address"
        },
        {
          "indexed": true,
          "internalType": "uint256",
          "name": "tokenId",
          "type": "uint256"
        }
      ],
      "name": "Transfer",
      "type": "event"
    },
    {
      "inputs": [
        {
          "internalType": "string",
          "name": "name",
          "type": "string"
        },
        {
          "internalType": "uint256",
          "name": "price",
          "type": "uint256"
        },
        {
          "internalType": "bool",
          "name": "isLegit",
          "type": "bool"
        },
        {
          "internalType": "string",
          "name": "imageUri",
          "type": "string"
        },
        {
          "internalType": "string",
          "name": "description",
          "type": "string"
        },
        {
          "internalType": "string",
          "name": "tokenUri",
          "type": "string"
        }
      ],
      "name": "addItem",
      "outputs": [],
      "stateMutability": "nonpayable",
      "type": "function"
    },
    {
      "inputs": [
        {
          "internalType": "address",
          "name": "to",
          "type": "address"
        },
        {
          "internalType": "uint256",
          "name": "tokenId",
          "type": "uint256"
        }
      ],
      "name": "approve",
      "outputs": [],
      "stateMutability": "nonpayable",
      "type": "function"
    },
    {
      "inputs": [
        {
          "internalType": "uint256",
          "name": "itemId",
          "type": "uint256"
        },
        {
          "internalType": "address",
          "name": "userAddress",
          "type": "address"
        }
      ],
      "name": "associateItemWithUser",
      "outputs": [],
      "stateMutability": "nonpayable",
      "type": "function"
    },
    {
      "inputs": [
        {
          "internalType": "address",
          "name": "owner",
          "type": "address"
        }
      ],
      "name": "balanceOf",
      "outputs": [
        {
          "internalType": "uint256",
          "name": "",
          "type": "uint256"
        }
      ],
      "stateMutability": "view",
      "type": "function"
    },
    {
      "inputs": [],
      "name": "getAllItems",
      "outputs": [
        {
          "components": [
            {
              "internalType": "uint256",
              "name": "id",
              "type": "uint256"
            },
            {
              "internalType": "string",
              "name": "name",
              "type": "string"
            },
            {
              "internalType": "uint256",
              "name": "price",
              "type": "uint256"
            },
            {
              "internalType": "bool",
              "name": "isLegit",
              "type": "bool"
            },
            {
              "internalType": "string",
              "name": "imageUri",
              "type": "string"
            },
            {
              "internalType": "string",
              "name": "description",
              "type": "string"
            },
            {
              "internalType": "string",
              "name": "tokenUri",
              "type": "string"
            }
          ],
          "internalType": "struct HealthItemPurchase.Item[]",
          "name": "",
          "type": "tuple[]"
        }
      ],
      "stateMutability": "view",
      "type": "function"
    },
    {
      "inputs": [
        {
          "internalType": "uint256",
          "name": "tokenId",
          "type": "uint256"
        }
      ],
      "name": "getApproved",
      "outputs": [
        {
          "internalType": "address",
          "name": "",
          "type": "address"
        }
      ],
      "stateMutability": "view",
      "type": "function"
    },
    {
      "inputs": [
        {
          "internalType": "uint256",
          "name": "receiptId",
          "type": "uint256"
        }
      ],
      "name": "getReceiptDetails",
      "outputs": [
        {
          "components": [
            {
              "internalType": "uint256",
              "name": "receiptId",
              "type": "uint256"
            },
            {
              "internalType": "address",
              "name": "buyer",
              "type": "address"
            },
            {
              "internalType": "uint256[]",
              "name": "itemIds",
              "type": "uint256[]"
            },
            {
              "internalType": "uint256",
              "name": "totalPrice",
              "type": "uint256"
            },
            {
              "internalType": "uint256",
              "name": "purchaseDate",
              "type": "uint256"
            },
            {
              "internalType": "string",
              "name": "tokenUri",
              "type": "string"
            }
          ],
          "internalType": "struct HealthItemPurchase.Receipt",
          "name": "",
          "type": "tuple"
        }
      ],
      "stateMutability": "view",
      "type": "function"
    },
    {
      "inputs": [
        {
          "internalType": "address",
          "name": "user",
          "type": "address"
        }
      ],
      "name": "getUserReceipts",
      "outputs": [
        {
          "internalType": "uint256[]",
          "name": "",
          "type": "uint256[]"
        }
      ],
      "stateMutability": "view",
      "type": "function"
    },
    {
      "inputs": [
        {
          "internalType": "address",
          "name": "owner",
          "type": "address"
        },
        {
          "internalType": "address",
          "name": "operator",
          "type": "address"
        }
      ],
      "name": "isApprovedForAll",
      "outputs": [
        {
          "internalType": "bool",
          "name": "",
          "type": "bool"
        }
      ],
      "stateMutability": "view",
      "type": "function"
    },
    {
      "inputs": [
        {
          "internalType": "uint256",
          "name": "",
          "type": "uint256"
        }
      ],
      "name": "itemToOwner",
      "outputs": [
        {
          "internalType": "address",
          "name": "",
          "type": "address"
        }
      ],
      "stateMutability": "view",
      "type": "function"
    },
    {
      "inputs": [
        {
          "internalType": "uint256",
          "name": "",
          "type": "uint256"
        }
      ],
      "name": "items",
      "outputs": [
        {
          "internalType": "uint256",
          "name": "id",
          "type": "uint256"
        },
        {
          "internalType": "string",
          "name": "name",
          "type": "string"
        },
        {
          "internalType": "uint256",
          "name": "price",
          "type": "uint256"
        },
        {
          "internalType": "bool",
          "name": "isLegit",
          "type": "bool"
        },
        {
          "internalType": "string",
          "name": "imageUri",
          "type": "string"
        },
        {
          "internalType": "string",
          "name": "description",
          "type": "string"
        },
        {
          "internalType": "string",
          "name": "tokenUri",
          "type": "string"
        }
      ],
      "stateMutability": "view",
      "type": "function"
    },
    {
      "inputs": [],
      "name": "name",
      "outputs": [
        {
          "internalType": "string",
          "name": "",
          "type": "string"
        }
      ],
      "stateMutability": "view",
      "type": "function"
    },
    {
      "inputs": [],
      "name": "owner",
      "outputs": [
        {
          "internalType": "address",
          "name": "",
          "type": "address"
        }
      ],
      "stateMutability": "view",
      "type": "function"
    },
    {
      "inputs": [
        {
          "internalType": "uint256",
          "name": "tokenId",
          "type": "uint256"
        }
      ],
      "name": "ownerOf",
      "outputs": [
        {
          "internalType": "address",
          "name": "",
          "type": "address"
        }
      ],
      "stateMutability": "view",
      "type": "function"
    },
    {
      "inputs": [
        {
          "internalType": "uint256[]",
          "name": "itemIds",
          "type": "uint256[]"
        },
        {
          "internalType": "string",
          "name": "tokenUri",
          "type": "string"
        }
      ],
      "name": "purchaseItems",
      "outputs": [],
      "stateMutability": "payable",
      "type": "function"
    },
    {
      "inputs": [
        {
          "internalType": "uint256",
          "name": "",
          "type": "uint256"
        }
      ],
      "name": "receipts",
      "outputs": [
        {
          "internalType": "uint256",
          "name": "receiptId",
          "type": "uint256"
        },
        {
          "internalType": "address",
          "name": "buyer",
          "type": "address"
        },
        {
          "internalType": "uint256",
          "name": "totalPrice",
          "type": "uint256"
        },
        {
          "internalType": "uint256",
          "name": "purchaseDate",
          "type": "uint256"
        },
        {
          "internalType": "string",
          "name": "tokenUri",
          "type": "string"
        }
      ],
      "stateMutability": "view",
      "type": "function"
    },
    {
      "inputs": [],
      "name": "renounceOwnership",
      "outputs": [],
      "stateMutability": "nonpayable",
      "type": "function"
    },
    {
      "inputs": [
        {
          "internalType": "address",
          "name": "from",
          "type": "address"
        },
        {
          "internalType": "address",
          "name": "to",
          "type": "address"
        },
        {
          "internalType": "uint256",
          "name": "tokenId",
          "type": "uint256"
        }
      ],
      "name": "safeTransferFrom",
      "outputs": [],
      "stateMutability": "nonpayable",
      "type": "function"
    },
    {
      "inputs": [
        {
          "internalType": "address",
          "name": "from",
          "type": "address"
        },
        {
          "internalType": "address",
          "name": "to",
          "type": "address"
        },
        {
          "internalType": "uint256",
          "name": "tokenId",
          "type": "uint256"
        },
        {
          "internalType": "bytes",
          "name": "data",
          "type": "bytes"
        }
      ],
      "name": "safeTransferFrom",
      "outputs": [],
      "stateMutability": "nonpayable",
      "type": "function"
    },
    {
      "inputs": [
        {
          "internalType": "address",
          "name": "operator",
          "type": "address"
        },
        {
          "internalType": "bool",
          "name": "approved",
          "type": "bool"
        }
      ],
      "name": "setApprovalForAll",
      "outputs": [],
      "stateMutability": "nonpayable",
      "type": "function"
    },
    {
      "inputs": [
        {
          "internalType": "bytes4",
          "name": "interfaceId",
          "type": "bytes4"
        }
      ],
      "name": "supportsInterface",
      "outputs": [
        {
          "internalType": "bool",
          "name": "",
          "type": "bool"
        }
      ],
      "stateMutability": "view",
      "type": "function"
    },
    {
      "inputs": [],
      "name": "symbol",
      "outputs": [
        {
          "internalType": "string",
          "name": "",
          "type": "string"
        }
      ],
      "stateMutability": "view",
      "type": "function"
    },
    {
      "inputs": [
        {
          "internalType": "uint256",
          "name": "tokenId",
          "type": "uint256"
        }
      ],
      "name": "tokenURI",
      "outputs": [
        {
          "internalType": "string",
          "name": "",
          "type": "string"
        }
      ],
      "stateMutability": "view",
      "type": "function"
    },
    {
      "inputs": [
        {
          "internalType": "address",
          "name": "from",
          "type": "address"
        },
        {
          "internalType": "address",
          "name": "to",
          "type": "address"
        },
        {
          "internalType": "uint256",
          "name": "tokenId",
          "type": "uint256"
        }
      ],
      "name": "transferFrom",
      "outputs": [],
      "stateMutability": "nonpayable",
      "type": "function"
    },
    {
      "inputs": [
        {
          "internalType": "address",
          "name": "newOwner",
          "type": "address"
        }
      ],
      "name": "transferOwnership",
      "outputs": [],
      "stateMutability": "nonpayable",
      "type": "function"
    },
    {
      "inputs": [
        {
          "internalType": "address",
          "name": "",
          "type": "address"
        },
        {
          "internalType": "uint256",
          "name": "",
          "type": "uint256"
        }
      ],
      "name": "userReceipts",
      "outputs": [
        {
          "internalType": "uint256",
          "name": "",
          "type": "uint256"
        }
      ],
      "stateMutability": "view",
      "type": "function"
    }
  ],
  "bytecode": "0x60806040523480156200001157600080fd5b50336040518060400160405280600d81526020017f4865616c74684974656d4e4654000000000000000000000000000000000000008152506040518060400160405280600581526020017f48494e4654000000000000000000000000000000000000000000000000000000815250816000908162000090919062000472565b508060019081620000a2919062000472565b505050600073ffffffffffffffffffffffffffffffffffffffff168173ffffffffffffffffffffffffffffffffffffffff16036200011a5760006040517f1e4fbdf70000000000000000000000000000000000000000000000000000000081526004016200011191906200059e565b60405180910390fd5b6200012b816200013260201b60201c565b50620005bb565b6000600760009054906101000a900473ffffffffffffffffffffffffffffffffffffffff16905081600760006101000a81548173ffffffffffffffffffffffffffffffffffffffff021916908373ffffffffffffffffffffffffffffffffffffffff1602179055508173ffffffffffffffffffffffffffffffffffffffff168173ffffffffffffffffffffffffffffffffffffffff167f8be0079c531659141344cd1fd0a4f28419497f9722a3daafe3b4186f6b6457e060405160405180910390a35050565b600081519050919050565b7f4e487b7100000000000000000000000000000000000000000000000000000000600052604160045260246000fd5b7f4e487b7100000000000000000000000000000000000000000000000000000000600052602260045260246000fd5b600060028204905060018216806200027a57607f821691505b60208210810362000290576200028f62000232565b5b50919050565b60008190508160005260206000209050919050565b60006020601f8301049050919050565b600082821b905092915050565b600060088302620002fa7fffffffffffffffffffffffffffffffffffffffffffffffffffffffffffffffff82620002bb565b620003068683620002bb565b95508019841693508086168417925050509392505050565b6000819050919050565b6000819050919050565b6000620003536200034d62000347846200031e565b62000328565b6200031e565b9050919050565b6000819050919050565b6200036f8362000332565b620003876200037e826200035a565b848454620002c8565b825550505050565b600090565b6200039e6200038f565b620003ab81848462000364565b505050565b5b81811015620003d357620003c760008262000394565b600181019050620003b1565b5050565b601f8211156200042257620003ec8162000296565b620003f784620002ab565b8101602085101562000407578190505b6200041f6200041685620002ab565b830182620003b0565b50505b505050565b600082821c905092915050565b6000620004476000198460080262000427565b1980831691505092915050565b600062000462838362000434565b9150826002028217905092915050565b6200047d82620001f8565b67ffffffffffffffff81111562000499576200049862000203565b5b620004a5825462000261565b620004b2828285620003d7565b600060209050601f831160018114620004ea5760008415620004d5578287015190505b620004e1858262000454565b86555062000551565b601f198416620004fa8662000296565b60005b828110156200052457848901518255600182019150602085019450602081019050620004fd565b8683101562000544578489015162000540601f89168262000434565b8355505b6001600288020188555050505b505050505050565b600073ffffffffffffffffffffffffffffffffffffffff82169050919050565b6000620005868262000559565b9050919050565b620005988162000579565b82525050565b6000602082019050620005b560008301846200058d565b92915050565b61443d80620005cb6000396000f3fe6080604052600436106101815760003560e01c806372d7097b116100d1578063b88d4fde1161008a578063c87b56dd11610064578063c87b56dd146105c7578063e985e9c514610604578063f21220ca14610641578063f2fde38b1461066a57610181565b8063b88d4fde14610532578063bfb231d21461055b578063c358f7b51461059e57610181565b806372d7097b146103fc5780638da5cb5b1461043957806395d89b41146104645780639e19bb591461048f578063a22cb465146104cc578063a843c5fe146104f557610181565b80631a4d96cd1161013e5780634ba1d6aa116101185780634ba1d6aa146103405780636352211e1461036b57806370a08231146103a8578063715018a6146103e557610181565b80631a4d96cd146102b157806323b872dd146102ee57806342842e0e1461031757610181565b806301ffc9a71461018657806306fdde03146101c3578063081812fc146101ee578063095ea7b31461022b5780630f7ee1ec1461025457806311ee1e2114610295575b600080fd5b34801561019257600080fd5b506101ad60048036038101906101a89190612efe565b610693565b6040516101ba9190612f46565b60405180910390f35b3480156101cf57600080fd5b506101d86106f4565b6040516101e59190612ff1565b60405180910390f35b3480156101fa57600080fd5b5061021560048036038101906102109190613049565b610786565b60405161022291906130b7565b60405180910390f35b34801561023757600080fd5b50610252600480360381019061024d91906130fe565b6107a2565b005b34801561026057600080fd5b5061027b60048036038101906102769190613049565b6107b8565b60405161028c95949392919061314d565b60405180910390f35b6102af60048036038101906102aa91906133a4565b610896565b005b3480156102bd57600080fd5b506102d860048036038101906102d39190613049565b610cc9565b6040516102e591906130b7565b60405180910390f35b3480156102fa57600080fd5b506103156004803603810190610310919061341c565b610cfc565b005b34801561032357600080fd5b5061033e6004803603810190610339919061341c565b610dfe565b005b34801561034c57600080fd5b50610355610e1e565b604051610362919061364a565b60405180910390f35b34801561037757600080fd5b50610392600480360381019061038d9190613049565b611164565b60405161039f91906130b7565b60405180910390f35b3480156103b457600080fd5b506103cf60048036038101906103ca919061366c565b611176565b6040516103dc9190613699565b60405180910390f35b3480156103f157600080fd5b506103fa611230565b005b34801561040857600080fd5b50610423600480360381019061041e9190613049565b611244565b6040516104309190613802565b60405180910390f35b34801561044557600080fd5b5061044e6113cf565b60405161045b91906130b7565b60405180910390f35b34801561047057600080fd5b506104796113f9565b6040516104869190612ff1565b60405180910390f35b34801561049b57600080fd5b506104b660048036038101906104b1919061366c565b61148b565b6040516104c39190613893565b60405180910390f35b3480156104d857600080fd5b506104f360048036038101906104ee91906138e1565b611522565b005b34801561050157600080fd5b5061051c600480360381019061051791906130fe565b611538565b6040516105299190613699565b60405180910390f35b34801561053e57600080fd5b50610559600480360381019061055491906139c2565b611569565b005b34801561056757600080fd5b50610582600480360381019061057d9190613049565b611586565b6040516105959796959493929190613a45565b60405180910390f35b3480156105aa57600080fd5b506105c560048036038101906105c09190613ad0565b6117f5565b005b3480156105d357600080fd5b506105ee60048036038101906105e99190613049565b611917565b6040516105fb9190612ff1565b60405180910390f35b34801561061057600080fd5b5061062b60048036038101906106269190613bcd565b611a2a565b6040516106389190612f46565b60405180910390f35b34801561064d57600080fd5b5061066860048036038101906106639190613c0d565b611abe565b005b34801561067657600080fd5b50610691600480360381019061068c919061366c565b611b75565b005b6000634906490660e01b7bffffffffffffffffffffffffffffffffffffffffffffffffffffffff1916827bffffffffffffffffffffffffffffffffffffffffffffffffffffffff191614806106ed57506106ec82611bfb565b5b9050919050565b60606000805461070390613c7c565b80601f016020809104026020016040519081016040528092919081815260200182805461072f90613c7c565b801561077c5780601f106107515761010080835404028352916020019161077c565b820191906000526020600020905b81548152906001019060200180831161075f57829003601f168201915b5050505050905090565b600061079182611cdd565b5061079b82611d65565b9050919050565b6107b482826107af611da2565b611daa565b5050565b600b6020528060005260406000206000915090508060000154908060010160009054906101000a900473ffffffffffffffffffffffffffffffffffffffff169080600301549080600401549080600501805461081390613c7c565b80601f016020809104026020016040519081016040528092919081815260200182805461083f90613c7c565b801561088c5780601f106108615761010080835404028352916020019161088c565b820191906000526020600020905b81548152906001019060200180831161086f57829003601f168201915b5050505050905085565b6000805b8351811015610a26573373ffffffffffffffffffffffffffffffffffffffff16600d60008684815181106108d1576108d0613cad565b5b6020026020010151815260200190815260200160002060009054906101000a900473ffffffffffffffffffffffffffffffffffffffff1673ffffffffffffffffffffffffffffffffffffffff161461095e576040517f08c379a000000000000000000000000000000000000000000000000000000000815260040161095590613d4e565b60405180910390fd5b600a600085838151811061097557610974613cad565b5b6020026020010151815260200190815260200160002060030160009054906101000a900460ff166109db576040517f08c379a00000000000000000000000000000000000000000000000000000000081526004016109d290613dba565b60405180910390fd5b600a60008583815181106109f2576109f1613cad565b5b602002602001015181526020019081526020016000206002015482610a179190613e09565b9150808060010191505061089a565b5080341015610a6a576040517f08c379a0000000000000000000000000000000000000000000000000000000008152600401610a6190613eaf565b60405180910390fd5b60086000815480929190610a7d90613ecf565b91905055506000600854620f4240610a959190613e09565b90506040518060c001604052808281526020013373ffffffffffffffffffffffffffffffffffffffff16815260200185815260200183815260200142815260200160405180602001604052806000815250815250600b60008381526020019081526020016000206000820151816000015560208201518160010160006101000a81548173ffffffffffffffffffffffffffffffffffffffff021916908373ffffffffffffffffffffffffffffffffffffffff1602179055506040820151816002019080519060200190610b69929190612d9d565b50606082015181600301556080820151816004015560a0820151816005019081610b9391906140c3565b50905050600c60003373ffffffffffffffffffffffffffffffffffffffff1673ffffffffffffffffffffffffffffffffffffffff168152602001908152602001600020819080600181540180825580915050600190039060005260206000200160009091909190915055610c073382611dbc565b610c118184611eb5565b60005b8451811015610cc257610c49610c286113cf565b33878481518110610c3c57610c3b613cad565b5b6020026020010151611f11565b33600d6000878481518110610c6157610c60613cad565b5b6020026020010151815260200190815260200160002060006101000a81548173ffffffffffffffffffffffffffffffffffffffff021916908373ffffffffffffffffffffffffffffffffffffffff1602179055508080600101915050610c14565b5050505050565b600d6020528060005260406000206000915054906101000a900473ffffffffffffffffffffffffffffffffffffffff1681565b600073ffffffffffffffffffffffffffffffffffffffff168273ffffffffffffffffffffffffffffffffffffffff1603610d6e5760006040517f64a0ae92000000000000000000000000000000000000000000000000000000008152600401610d6591906130b7565b60405180910390fd5b6000610d828383610d7d611da2565b61207e565b90508373ffffffffffffffffffffffffffffffffffffffff168173ffffffffffffffffffffffffffffffffffffffff1614610df8578382826040517f64283d7b000000000000000000000000000000000000000000000000000000008152600401610def93929190614195565b60405180910390fd5b50505050565b610e1983838360405180602001604052806000815250611569565b505050565b6060600060095467ffffffffffffffff811115610e3e57610e3d6131ac565b5b604051908082528060200260200182016040528015610e7757816020015b610e64612dea565b815260200190600190039081610e5c5790505b5090506000600190505b600954811161115c57600a60008281526020019081526020016000206040518060e001604052908160008201548152602001600182018054610ec290613c7c565b80601f0160208091040260200160405190810160405280929190818152602001828054610eee90613c7c565b8015610f3b5780601f10610f1057610100808354040283529160200191610f3b565b820191906000526020600020905b815481529060010190602001808311610f1e57829003601f168201915b50505050508152602001600282015481526020016003820160009054906101000a900460ff16151515158152602001600482018054610f7990613c7c565b80601f0160208091040260200160405190810160405280929190818152602001828054610fa590613c7c565b8015610ff25780601f10610fc757610100808354040283529160200191610ff2565b820191906000526020600020905b815481529060010190602001808311610fd557829003601f168201915b5050505050815260200160058201805461100b90613c7c565b80601f016020809104026020016040519081016040528092919081815260200182805461103790613c7c565b80156110845780601f1061105957610100808354040283529160200191611084565b820191906000526020600020905b81548152906001019060200180831161106757829003601f168201915b5050505050815260200160068201805461109d90613c7c565b80601f01602080910402602001604051908101604052809291908181526020018280546110c990613c7c565b80156111165780601f106110eb57610100808354040283529160200191611116565b820191906000526020600020905b8154815290600101906020018083116110f957829003601f168201915b5050505050815250508260018361112d91906141cc565b8151811061113e5761113d613cad565b5b6020026020010181905250808061115490613ecf565b915050610e81565b508091505090565b600061116f82611cdd565b9050919050565b60008073ffffffffffffffffffffffffffffffffffffffff168273ffffffffffffffffffffffffffffffffffffffff16036111e95760006040517f89c62b640000000000000000000000000000000000000000000000000000000081526004016111e091906130b7565b60405180910390fd5b600360008373ffffffffffffffffffffffffffffffffffffffff1673ffffffffffffffffffffffffffffffffffffffff168152602001908152602001600020549050919050565b611238612298565b611242600061231f565b565b61124c612e29565b600b60008381526020019081526020016000206040518060c0016040529081600082015481526020016001820160009054906101000a900473ffffffffffffffffffffffffffffffffffffffff1673ffffffffffffffffffffffffffffffffffffffff1673ffffffffffffffffffffffffffffffffffffffff1681526020016002820180548060200260200160405190810160405280929190818152602001828054801561131957602002820191906000526020600020905b815481526020019060010190808311611305575b50505050508152602001600382015481526020016004820154815260200160058201805461134690613c7c565b80601f016020809104026020016040519081016040528092919081815260200182805461137290613c7c565b80156113bf5780601f10611394576101008083540402835291602001916113bf565b820191906000526020600020905b8154815290600101906020018083116113a257829003601f168201915b5050505050815250509050919050565b6000600760009054906101000a900473ffffffffffffffffffffffffffffffffffffffff16905090565b60606001805461140890613c7c565b80601f016020809104026020016040519081016040528092919081815260200182805461143490613c7c565b80156114815780601f1061145657610100808354040283529160200191611481565b820191906000526020600020905b81548152906001019060200180831161146457829003601f168201915b5050505050905090565b6060600c60008373ffffffffffffffffffffffffffffffffffffffff1673ffffffffffffffffffffffffffffffffffffffff16815260200190815260200160002080548060200260200160405190810160405280929190818152602001828054801561151657602002820191906000526020600020905b815481526020019060010190808311611502575b50505050509050919050565b61153461152d611da2565b83836123e5565b5050565b600c602052816000526040600020818154811061155457600080fd5b90600052602060002001600091509150505481565b611574848484610cfc565b61158084848484612554565b50505050565b600a6020528060005260406000206000915090508060000154908060010180546115af90613c7c565b80601f01602080910402602001604051908101604052809291908181526020018280546115db90613c7c565b80156116285780601f106115fd57610100808354040283529160200191611628565b820191906000526020600020905b81548152906001019060200180831161160b57829003601f168201915b5050505050908060020154908060030160009054906101000a900460ff169080600401805461165690613c7c565b80601f016020809104026020016040519081016040528092919081815260200182805461168290613c7c565b80156116cf5780601f106116a4576101008083540402835291602001916116cf565b820191906000526020600020905b8154815290600101906020018083116116b257829003601f168201915b5050505050908060050180546116e490613c7c565b80601f016020809104026020016040519081016040528092919081815260200182805461171090613c7c565b801561175d5780601f106117325761010080835404028352916020019161175d565b820191906000526020600020905b81548152906001019060200180831161174057829003601f168201915b50505050509080600601805461177290613c7c565b80601f016020809104026020016040519081016040528092919081815260200182805461179e90613c7c565b80156117eb5780601f106117c0576101008083540402835291602001916117eb565b820191906000526020600020905b8154815290600101906020018083116117ce57829003601f168201915b5050505050905087565b6117fd612298565b6009600081548092919061181090613ecf565b91905055506040518060e001604052806009548152602001878152602001868152602001851515815260200184815260200183815260200182815250600a6000600954815260200190815260200160002060008201518160000155602082015181600101908161188091906140c3565b506040820151816002015560608201518160030160006101000a81548160ff02191690831515021790555060808201518160040190816118c091906140c3565b5060a08201518160050190816118d691906140c3565b5060c08201518160060190816118ec91906140c3565b509050506119036118fb6113cf565b600954611dbc565b61190f60095482611eb5565b505050505050565b606061192282611cdd565b50600060066000848152602001908152602001600020805461194390613c7c565b80601f016020809104026020016040519081016040528092919081815260200182805461196f90613c7c565b80156119bc5780601f10611991576101008083540402835291602001916119bc565b820191906000526020600020905b81548152906001019060200180831161199f57829003601f168201915b5050505050905060006119cd61270b565b905060008151036119e2578192505050611a25565b600082511115611a175780826040516020016119ff92919061423c565b60405160208183030381529060405292505050611a25565b611a2084612722565b925050505b919050565b6000600560008473ffffffffffffffffffffffffffffffffffffffff1673ffffffffffffffffffffffffffffffffffffffff16815260200190815260200160002060008373ffffffffffffffffffffffffffffffffffffffff1673ffffffffffffffffffffffffffffffffffffffff16815260200190815260200160002060009054906101000a900460ff16905092915050565b611ac6612298565b6000600a60008481526020019081526020016000206000015403611b1f576040517f08c379a0000000000000000000000000000000000000000000000000000000008152600401611b16906142ac565b60405180910390fd5b80600d600084815260200190815260200160002060006101000a81548173ffffffffffffffffffffffffffffffffffffffff021916908373ffffffffffffffffffffffffffffffffffffffff1602179055505050565b611b7d612298565b600073ffffffffffffffffffffffffffffffffffffffff168173ffffffffffffffffffffffffffffffffffffffff1603611bef5760006040517f1e4fbdf7000000000000000000000000000000000000000000000000000000008152600401611be691906130b7565b60405180910390fd5b611bf88161231f565b50565b60007f80ac58cd000000000000000000000000000000000000000000000000000000007bffffffffffffffffffffffffffffffffffffffffffffffffffffffff1916827bffffffffffffffffffffffffffffffffffffffffffffffffffffffff19161480611cc657507f5b5e139f000000000000000000000000000000000000000000000000000000007bffffffffffffffffffffffffffffffffffffffffffffffffffffffff1916827bffffffffffffffffffffffffffffffffffffffffffffffffffffffff1916145b80611cd65750611cd58261278b565b5b9050919050565b600080611ce9836127f5565b9050600073ffffffffffffffffffffffffffffffffffffffff168173ffffffffffffffffffffffffffffffffffffffff1603611d5c57826040517f7e273289000000000000000000000000000000000000000000000000000000008152600401611d539190613699565b60405180910390fd5b80915050919050565b60006004600083815260200190815260200160002060009054906101000a900473ffffffffffffffffffffffffffffffffffffffff169050919050565b600033905090565b611db78383836001612832565b505050565b600073ffffffffffffffffffffffffffffffffffffffff168273ffffffffffffffffffffffffffffffffffffffff1603611e2e5760006040517f64a0ae92000000000000000000000000000000000000000000000000000000008152600401611e2591906130b7565b60405180910390fd5b6000611e3c8383600061207e565b9050600073ffffffffffffffffffffffffffffffffffffffff168173ffffffffffffffffffffffffffffffffffffffff1614611eb05760006040517f73c6ac6e000000000000000000000000000000000000000000000000000000008152600401611ea791906130b7565b60405180910390fd5b505050565b80600660008481526020019081526020016000209081611ed591906140c3565b507ff8e1a15aba9398e019f0b49df1a4fde98ee17ae345cb5f6b5e2c27f5033e8ce782604051611f059190613699565b60405180910390a15050565b600073ffffffffffffffffffffffffffffffffffffffff168273ffffffffffffffffffffffffffffffffffffffff1603611f835760006040517f64a0ae92000000000000000000000000000000000000000000000000000000008152600401611f7a91906130b7565b60405180910390fd5b6000611f918383600061207e565b9050600073ffffffffffffffffffffffffffffffffffffffff168173ffffffffffffffffffffffffffffffffffffffff160361200457816040517f7e273289000000000000000000000000000000000000000000000000000000008152600401611ffb9190613699565b60405180910390fd5b8373ffffffffffffffffffffffffffffffffffffffff168173ffffffffffffffffffffffffffffffffffffffff1614612078578382826040517f64283d7b00000000000000000000000000000000000000000000000000000000815260040161206f93929190614195565b60405180910390fd5b50505050565b60008061208a846127f5565b9050600073ffffffffffffffffffffffffffffffffffffffff168373ffffffffffffffffffffffffffffffffffffffff16146120cc576120cb8184866129f7565b5b600073ffffffffffffffffffffffffffffffffffffffff168173ffffffffffffffffffffffffffffffffffffffff161461215d5761210e600085600080612832565b6001600360008373ffffffffffffffffffffffffffffffffffffffff1673ffffffffffffffffffffffffffffffffffffffff168152602001908152602001600020600082825403925050819055505b600073ffffffffffffffffffffffffffffffffffffffff168573ffffffffffffffffffffffffffffffffffffffff16146121e0576001600360008773ffffffffffffffffffffffffffffffffffffffff1673ffffffffffffffffffffffffffffffffffffffff168152602001908152602001600020600082825401925050819055505b846002600086815260200190815260200160002060006101000a81548173ffffffffffffffffffffffffffffffffffffffff021916908373ffffffffffffffffffffffffffffffffffffffff160217905550838573ffffffffffffffffffffffffffffffffffffffff168273ffffffffffffffffffffffffffffffffffffffff167fddf252ad1be2c89b69c2b068fc378daa952ba7f163c4a11628f55a4df523b3ef60405160405180910390a4809150509392505050565b6122a0611da2565b73ffffffffffffffffffffffffffffffffffffffff166122be6113cf565b73ffffffffffffffffffffffffffffffffffffffff161461231d576122e1611da2565b6040517f118cdaa700000000000000000000000000000000000000000000000000000000815260040161231491906130b7565b60405180910390fd5b565b6000600760009054906101000a900473ffffffffffffffffffffffffffffffffffffffff16905081600760006101000a81548173ffffffffffffffffffffffffffffffffffffffff021916908373ffffffffffffffffffffffffffffffffffffffff1602179055508173ffffffffffffffffffffffffffffffffffffffff168173ffffffffffffffffffffffffffffffffffffffff167f8be0079c531659141344cd1fd0a4f28419497f9722a3daafe3b4186f6b6457e060405160405180910390a35050565b600073ffffffffffffffffffffffffffffffffffffffff168273ffffffffffffffffffffffffffffffffffffffff160361245657816040517f5b08ba1800000000000000000000000000000000000000000000000000000000815260040161244d91906130b7565b60405180910390fd5b80600560008573ffffffffffffffffffffffffffffffffffffffff1673ffffffffffffffffffffffffffffffffffffffff16815260200190815260200160002060008473ffffffffffffffffffffffffffffffffffffffff1673ffffffffffffffffffffffffffffffffffffffff16815260200190815260200160002060006101000a81548160ff0219169083151502179055508173ffffffffffffffffffffffffffffffffffffffff168373ffffffffffffffffffffffffffffffffffffffff167f17307eab39ab6107e8899845ad3d59bd9653f200f220920489ca2b5937696c31836040516125479190612f46565b60405180910390a3505050565b60008373ffffffffffffffffffffffffffffffffffffffff163b1115612705578273ffffffffffffffffffffffffffffffffffffffff1663150b7a02612598611da2565b8685856040518563ffffffff1660e01b81526004016125ba9493929190614321565b6020604051808303816000875af19250505080156125f657506040513d601f19601f820116820180604052508101906125f39190614382565b60015b61267a573d8060008114612626576040519150601f19603f3d011682016040523d82523d6000602084013e61262b565b606091505b50600081510361267257836040517f64a0ae9200000000000000000000000000000000000000000000000000000000815260040161266991906130b7565b60405180910390fd5b805181602001fd5b63150b7a0260e01b7bffffffffffffffffffffffffffffffffffffffffffffffffffffffff1916817bffffffffffffffffffffffffffffffffffffffffffffffffffffffff19161461270357836040517f64a0ae920000000000000000000000000000000000000000000000000000000081526004016126fa91906130b7565b60405180910390fd5b505b50505050565b606060405180602001604052806000815250905090565b606061272d82611cdd565b50600061273861270b565b905060008151116127585760405180602001604052806000815250612783565b8061276284612abb565b60405160200161277392919061423c565b6040516020818303038152906040525b915050919050565b60007f01ffc9a7000000000000000000000000000000000000000000000000000000007bffffffffffffffffffffffffffffffffffffffffffffffffffffffff1916827bffffffffffffffffffffffffffffffffffffffffffffffffffffffff1916149050919050565b60006002600083815260200190815260200160002060009054906101000a900473ffffffffffffffffffffffffffffffffffffffff169050919050565b808061286b5750600073ffffffffffffffffffffffffffffffffffffffff168273ffffffffffffffffffffffffffffffffffffffff1614155b1561299f57600061287b84611cdd565b9050600073ffffffffffffffffffffffffffffffffffffffff168373ffffffffffffffffffffffffffffffffffffffff16141580156128e657508273ffffffffffffffffffffffffffffffffffffffff168173ffffffffffffffffffffffffffffffffffffffff1614155b80156128f957506128f78184611a2a565b155b1561293b57826040517fa9fbf51f00000000000000000000000000000000000000000000000000000000815260040161293291906130b7565b60405180910390fd5b811561299d57838573ffffffffffffffffffffffffffffffffffffffff168273ffffffffffffffffffffffffffffffffffffffff167f8c5be1e5ebec7d5bd14f71427d1e84f3dd0314c0f7b2291e5b200ac8c7c3b92560405160405180910390a45b505b836004600085815260200190815260200160002060006101000a81548173ffffffffffffffffffffffffffffffffffffffff021916908373ffffffffffffffffffffffffffffffffffffffff16021790555050505050565b612a02838383612b89565b612ab657600073ffffffffffffffffffffffffffffffffffffffff168373ffffffffffffffffffffffffffffffffffffffff1603612a7757806040517f7e273289000000000000000000000000000000000000000000000000000000008152600401612a6e9190613699565b60405180910390fd5b81816040517f177e802f000000000000000000000000000000000000000000000000000000008152600401612aad9291906143af565b60405180910390fd5b505050565b606060006001612aca84612c4a565b01905060008167ffffffffffffffff811115612ae957612ae86131ac565b5b6040519080825280601f01601f191660200182016040528015612b1b5781602001600182028036833780820191505090505b509050600082602001820190505b600115612b7e578080600190039150507f3031323334353637383961626364656600000000000000000000000000000000600a86061a8153600a8581612b7257612b716143d8565b5b04945060008503612b29575b819350505050919050565b60008073ffffffffffffffffffffffffffffffffffffffff168373ffffffffffffffffffffffffffffffffffffffff1614158015612c4157508273ffffffffffffffffffffffffffffffffffffffff168473ffffffffffffffffffffffffffffffffffffffff161480612c025750612c018484611a2a565b5b80612c4057508273ffffffffffffffffffffffffffffffffffffffff16612c2883611d65565b73ffffffffffffffffffffffffffffffffffffffff16145b5b90509392505050565b600080600090507a184f03e93ff9f4daa797ed6e38ed64bf6a1f0100000000000000008310612ca8577a184f03e93ff9f4daa797ed6e38ed64bf6a1f0100000000000000008381612c9e57612c9d6143d8565b5b0492506040810190505b6d04ee2d6d415b85acef81000000008310612ce5576d04ee2d6d415b85acef81000000008381612cdb57612cda6143d8565b5b0492506020810190505b662386f26fc100008310612d1457662386f26fc100008381612d0a57612d096143d8565b5b0492506010810190505b6305f5e1008310612d3d576305f5e1008381612d3357612d326143d8565b5b0492506008810190505b6127108310612d62576127108381612d5857612d576143d8565b5b0492506004810190505b60648310612d855760648381612d7b57612d7a6143d8565b5b0492506002810190505b600a8310612d94576001810190505b80915050919050565b828054828255906000526020600020908101928215612dd9579160200282015b82811115612dd8578251825591602001919060010190612dbd565b5b509050612de69190612e75565b5090565b6040518060e001604052806000815260200160608152602001600081526020016000151581526020016060815260200160608152602001606081525090565b6040518060c0016040528060008152602001600073ffffffffffffffffffffffffffffffffffffffff168152602001606081526020016000815260200160008152602001606081525090565b5b80821115612e8e576000816000905550600101612e76565b5090565b6000604051905090565b600080fd5b600080fd5b60007fffffffff0000000000000000000000000000000000000000000000000000000082169050919050565b612edb81612ea6565b8114612ee657600080fd5b50565b600081359050612ef881612ed2565b92915050565b600060208284031215612f1457612f13612e9c565b5b6000612f2284828501612ee9565b91505092915050565b60008115159050919050565b612f4081612f2b565b82525050565b6000602082019050612f5b6000830184612f37565b92915050565b600081519050919050565b600082825260208201905092915050565b60005b83811015612f9b578082015181840152602081019050612f80565b60008484015250505050565b6000601f19601f8301169050919050565b6000612fc382612f61565b612fcd8185612f6c565b9350612fdd818560208601612f7d565b612fe681612fa7565b840191505092915050565b6000602082019050818103600083015261300b8184612fb8565b905092915050565b6000819050919050565b61302681613013565b811461303157600080fd5b50565b6000813590506130438161301d565b92915050565b60006020828403121561305f5761305e612e9c565b5b600061306d84828501613034565b91505092915050565b600073ffffffffffffffffffffffffffffffffffffffff82169050919050565b60006130a182613076565b9050919050565b6130b181613096565b82525050565b60006020820190506130cc60008301846130a8565b92915050565b6130db81613096565b81146130e657600080fd5b50565b6000813590506130f8816130d2565b92915050565b6000806040838503121561311557613114612e9c565b5b6000613123858286016130e9565b925050602061313485828601613034565b9150509250929050565b61314781613013565b82525050565b600060a082019050613162600083018861313e565b61316f60208301876130a8565b61317c604083018661313e565b613189606083018561313e565b818103608083015261319b8184612fb8565b90509695505050505050565b600080fd5b7f4e487b7100000000000000000000000000000000000000000000000000000000600052604160045260246000fd5b6131e482612fa7565b810181811067ffffffffffffffff82111715613203576132026131ac565b5b80604052505050565b6000613216612e92565b905061322282826131db565b919050565b600067ffffffffffffffff821115613242576132416131ac565b5b602082029050602081019050919050565b600080fd5b600061326b61326684613227565b61320c565b9050808382526020820190506020840283018581111561328e5761328d613253565b5b835b818110156132b757806132a38882613034565b845260208401935050602081019050613290565b5050509392505050565b600082601f8301126132d6576132d56131a7565b5b81356132e6848260208601613258565b91505092915050565b600080fd5b600067ffffffffffffffff82111561330f5761330e6131ac565b5b61331882612fa7565b9050602081019050919050565b82818337600083830152505050565b6000613347613342846132f4565b61320c565b905082815260208101848484011115613363576133626132ef565b5b61336e848285613325565b509392505050565b600082601f83011261338b5761338a6131a7565b5b813561339b848260208601613334565b91505092915050565b600080604083850312156133bb576133ba612e9c565b5b600083013567ffffffffffffffff8111156133d9576133d8612ea1565b5b6133e5858286016132c1565b925050602083013567ffffffffffffffff81111561340657613405612ea1565b5b61341285828601613376565b9150509250929050565b60008060006060848603121561343557613434612e9c565b5b6000613443868287016130e9565b9350506020613454868287016130e9565b925050604061346586828701613034565b9150509250925092565b600081519050919050565b600082825260208201905092915050565b6000819050602082019050919050565b6134a481613013565b82525050565b600082825260208201905092915050565b60006134c682612f61565b6134d081856134aa565b93506134e0818560208601612f7d565b6134e981612fa7565b840191505092915050565b6134fd81612f2b565b82525050565b600060e08301600083015161351b600086018261349b565b506020830151848203602086015261353382826134bb565b9150506040830151613548604086018261349b565b50606083015161355b60608601826134f4565b506080830151848203608086015261357382826134bb565b91505060a083015184820360a086015261358d82826134bb565b91505060c083015184820360c08601526135a782826134bb565b9150508091505092915050565b60006135c08383613503565b905092915050565b6000602082019050919050565b60006135e08261346f565b6135ea818561347a565b9350836020820285016135fc8561348b565b8060005b85811015613638578484038952815161361985826135b4565b9450613624836135c8565b925060208a01995050600181019050613600565b50829750879550505050505092915050565b6000602082019050818103600083015261366481846135d5565b905092915050565b60006020828403121561368257613681612e9c565b5b6000613690848285016130e9565b91505092915050565b60006020820190506136ae600083018461313e565b92915050565b6136bd81613096565b82525050565b600081519050919050565b600082825260208201905092915050565b6000819050602082019050919050565b60006136fb838361349b565b60208301905092915050565b6000602082019050919050565b600061371f826136c3565b61372981856136ce565b9350613734836136df565b8060005b8381101561376557815161374c88826136ef565b975061375783613707565b925050600181019050613738565b5085935050505092915050565b600060c08301600083015161378a600086018261349b565b50602083015161379d60208601826136b4565b50604083015184820360408601526137b58282613714565b91505060608301516137ca606086018261349b565b5060808301516137dd608086018261349b565b5060a083015184820360a08601526137f582826134bb565b9150508091505092915050565b6000602082019050818103600083015261381c8184613772565b905092915050565b600082825260208201905092915050565b6000613840826136c3565b61384a8185613824565b9350613855836136df565b8060005b8381101561388657815161386d88826136ef565b975061387883613707565b925050600181019050613859565b5085935050505092915050565b600060208201905081810360008301526138ad8184613835565b905092915050565b6138be81612f2b565b81146138c957600080fd5b50565b6000813590506138db816138b5565b92915050565b600080604083850312156138f8576138f7612e9c565b5b6000613906858286016130e9565b9250506020613917858286016138cc565b9150509250929050565b600067ffffffffffffffff82111561393c5761393b6131ac565b5b61394582612fa7565b9050602081019050919050565b600061396561396084613921565b61320c565b905082815260208101848484011115613981576139806132ef565b5b61398c848285613325565b509392505050565b600082601f8301126139a9576139a86131a7565b5b81356139b9848260208601613952565b91505092915050565b600080600080608085870312156139dc576139db612e9c565b5b60006139ea878288016130e9565b94505060206139fb878288016130e9565b9350506040613a0c87828801613034565b925050606085013567ffffffffffffffff811115613a2d57613a2c612ea1565b5b613a3987828801613994565b91505092959194509250565b600060e082019050613a5a600083018a61313e565b8181036020830152613a6c8189612fb8565b9050613a7b604083018861313e565b613a886060830187612f37565b8181036080830152613a9a8186612fb8565b905081810360a0830152613aae8185612fb8565b905081810360c0830152613ac28184612fb8565b905098975050505050505050565b60008060008060008060c08789031215613aed57613aec612e9c565b5b600087013567ffffffffffffffff811115613b0b57613b0a612ea1565b5b613b1789828a01613376565b9650506020613b2889828a01613034565b9550506040613b3989828a016138cc565b945050606087013567ffffffffffffffff811115613b5a57613b59612ea1565b5b613b6689828a01613376565b935050608087013567ffffffffffffffff811115613b8757613b86612ea1565b5b613b9389828a01613376565b92505060a087013567ffffffffffffffff811115613bb457613bb3612ea1565b5b613bc089828a01613376565b9150509295509295509295565b60008060408385031215613be457613be3612e9c565b5b6000613bf2858286016130e9565b9250506020613c03858286016130e9565b9150509250929050565b60008060408385031215613c2457613c23612e9c565b5b6000613c3285828601613034565b9250506020613c43858286016130e9565b9150509250929050565b7f4e487b7100000000000000000000000000000000000000000000000000000000600052602260045260246000fd5b60006002820490506001821680613c9457607f821691505b602082108103613ca757613ca6613c4d565b5b50919050565b7f4e487b7100000000000000000000000000000000000000000000000000000000600052603260045260246000fd5b7f5472616e73616374696f6e2073656e64657220646f6573206e6f74206f776e2060008201527f7468657365206974656d73000000000000000000000000000000000000000000602082015250565b6000613d38602b83612f6c565b9150613d4382613cdc565b604082019050919050565b60006020820190508181036000830152613d6781613d2b565b9050919050565b7f4f6e65206f72206d6f7265206974656d7320617265206e6f74206c6567697400600082015250565b6000613da4601f83612f6c565b9150613daf82613d6e565b602082019050919050565b60006020820190508181036000830152613dd381613d97565b9050919050565b7f4e487b7100000000000000000000000000000000000000000000000000000000600052601160045260246000fd5b6000613e1482613013565b9150613e1f83613013565b9250828201905080821115613e3757613e36613dda565b5b92915050565b7f496e73756666696369656e742066756e647320746f20636f6d706c657465207460008201527f6865207075726368617365000000000000000000000000000000000000000000602082015250565b6000613e99602b83612f6c565b9150613ea482613e3d565b604082019050919050565b60006020820190508181036000830152613ec881613e8c565b9050919050565b6000613eda82613013565b91507fffffffffffffffffffffffffffffffffffffffffffffffffffffffffffffffff8203613f0c57613f0b613dda565b5b600182019050919050565b60008190508160005260206000209050919050565b60006020601f8301049050919050565b600082821b905092915050565b600060088302613f797fffffffffffffffffffffffffffffffffffffffffffffffffffffffffffffffff82613f3c565b613f838683613f3c565b95508019841693508086168417925050509392505050565b6000819050919050565b6000613fc0613fbb613fb684613013565b613f9b565b613013565b9050919050565b6000819050919050565b613fda83613fa5565b613fee613fe682613fc7565b848454613f49565b825550505050565b600090565b614003613ff6565b61400e818484613fd1565b505050565b5b8181101561403257614027600082613ffb565b600181019050614014565b5050565b601f8211156140775761404881613f17565b61405184613f2c565b81016020851015614060578190505b61407461406c85613f2c565b830182614013565b50505b505050565b600082821c905092915050565b600061409a6000198460080261407c565b1980831691505092915050565b60006140b38383614089565b9150826002028217905092915050565b6140cc82612f61565b67ffffffffffffffff8111156140e5576140e46131ac565b5b6140ef8254613c7c565b6140fa828285614036565b600060209050601f83116001811461412d576000841561411b578287015190505b61412585826140a7565b86555061418d565b601f19841661413b86613f17565b60005b828110156141635784890151825560018201915060208501945060208101905061413e565b86831015614180578489015161417c601f891682614089565b8355505b6001600288020188555050505b505050505050565b60006060820190506141aa60008301866130a8565b6141b7602083018561313e565b6141c460408301846130a8565b949350505050565b60006141d782613013565b91506141e283613013565b92508282039050818111156141fa576141f9613dda565b5b92915050565b600081905092915050565b600061421682612f61565b6142208185614200565b9350614230818560208601612f7d565b80840191505092915050565b6000614248828561420b565b9150614254828461420b565b91508190509392505050565b7f4974656d20646f6573206e6f7420657869737400000000000000000000000000600082015250565b6000614296601383612f6c565b91506142a182614260565b602082019050919050565b600060208201905081810360008301526142c581614289565b9050919050565b600081519050919050565b600082825260208201905092915050565b60006142f3826142cc565b6142fd81856142d7565b935061430d818560208601612f7d565b61431681612fa7565b840191505092915050565b600060808201905061433660008301876130a8565b61434360208301866130a8565b614350604083018561313e565b818103606083015261436281846142e8565b905095945050505050565b60008151905061437c81612ed2565b92915050565b60006020828403121561439857614397612e9c565b5b60006143a68482850161436d565b91505092915050565b60006040820190506143c460008301856130a8565b6143d1602083018461313e565b9392505050565b7f4e487b7100000000000000000000000000000000000000000000000000000000600052601260045260246000fdfea2646970667358221220e973955eaee61c0a285c792f48db1e585ee8333285d8222a994e74234d66aeaa64736f6c63430008180033",
  "linkReferences": {},
  "deployedLinkReferences": {}
}